{
  "_format": "hh-sol-artifact-1",
  "contractName": "AstroFT",
  "sourceName": "contracts/AstroFT.sol",
  "abi": [
    {
      "inputs": [
        {
          "internalType": "address",
          "name": "registry",
          "type": "address"
        }
      ],
      "stateMutability": "nonpayable",
      "type": "constructor"
    },
    {
      "anonymous": false,
      "inputs": [
        {
          "indexed": true,
          "internalType": "address",
          "name": "owner",
          "type": "address"
        },
        {
          "indexed": true,
          "internalType": "address",
          "name": "approved",
          "type": "address"
        },
        {
          "indexed": true,
          "internalType": "uint256",
          "name": "tokenId",
          "type": "uint256"
        }
      ],
      "name": "Approval",
      "type": "event"
    },
    {
      "anonymous": false,
      "inputs": [
        {
          "indexed": true,
          "internalType": "address",
          "name": "owner",
          "type": "address"
        },
        {
          "indexed": true,
          "internalType": "address",
          "name": "operator",
          "type": "address"
        },
        {
          "indexed": false,
          "internalType": "bool",
          "name": "approved",
          "type": "bool"
        }
      ],
      "name": "ApprovalForAll",
      "type": "event"
    },
    {
      "anonymous": false,
      "inputs": [
        {
          "indexed": true,
          "internalType": "address",
          "name": "previousOwner",
          "type": "address"
        },
        {
          "indexed": true,
          "internalType": "address",
          "name": "newOwner",
          "type": "address"
        }
      ],
      "name": "OwnershipTransferred",
      "type": "event"
    },
    {
      "anonymous": false,
      "inputs": [
        {
          "indexed": true,
          "internalType": "address",
          "name": "from",
          "type": "address"
        },
        {
          "indexed": true,
          "internalType": "address",
          "name": "to",
          "type": "address"
        },
        {
          "indexed": true,
          "internalType": "uint256",
          "name": "tokenId",
          "type": "uint256"
        }
      ],
      "name": "Transfer",
      "type": "event"
    },
    {
      "inputs": [
        {
          "internalType": "address",
          "name": "to",
          "type": "address"
        },
        {
          "internalType": "uint256",
          "name": "tokenId",
          "type": "uint256"
        }
      ],
      "name": "approve",
      "outputs": [],
      "stateMutability": "nonpayable",
      "type": "function"
    },
    {
      "inputs": [
        {
          "internalType": "address",
          "name": "owner",
          "type": "address"
        }
      ],
      "name": "balanceOf",
      "outputs": [
        {
          "internalType": "uint256",
          "name": "",
          "type": "uint256"
        }
      ],
      "stateMutability": "view",
      "type": "function"
    },
    {
      "inputs": [
        {
          "internalType": "uint256",
          "name": "tokenId",
          "type": "uint256"
        }
      ],
      "name": "getApproved",
      "outputs": [
        {
          "internalType": "address",
          "name": "",
          "type": "address"
        }
      ],
      "stateMutability": "view",
      "type": "function"
    },
    {
      "inputs": [
        {
          "internalType": "address",
          "name": "owner",
          "type": "address"
        },
        {
          "internalType": "address",
          "name": "operator",
          "type": "address"
        }
      ],
      "name": "isApprovedForAll",
      "outputs": [
        {
          "internalType": "bool",
          "name": "",
          "type": "bool"
        }
      ],
      "stateMutability": "view",
      "type": "function"
    },
    {
      "inputs": [],
      "name": "metadataURI",
      "outputs": [
        {
          "internalType": "string",
          "name": "",
          "type": "string"
        }
      ],
      "stateMutability": "view",
      "type": "function"
    },
    {
      "inputs": [],
      "name": "name",
      "outputs": [
        {
          "internalType": "string",
          "name": "",
          "type": "string"
        }
      ],
      "stateMutability": "view",
      "type": "function"
    },
    {
      "inputs": [],
      "name": "owner",
      "outputs": [
        {
          "internalType": "address",
          "name": "",
          "type": "address"
        }
      ],
      "stateMutability": "view",
      "type": "function"
    },
    {
      "inputs": [
        {
          "internalType": "uint256",
          "name": "tokenId",
          "type": "uint256"
        }
      ],
      "name": "ownerOf",
      "outputs": [
        {
          "internalType": "address",
          "name": "",
          "type": "address"
        }
      ],
      "stateMutability": "view",
      "type": "function"
    },
    {
      "inputs": [],
      "name": "renounceOwnership",
      "outputs": [],
      "stateMutability": "nonpayable",
      "type": "function"
    },
    {
      "inputs": [
        {
          "internalType": "address",
          "name": "to",
          "type": "address"
        }
      ],
      "name": "safeMint",
      "outputs": [
        {
          "internalType": "uint256",
          "name": "",
          "type": "uint256"
        }
      ],
      "stateMutability": "nonpayable",
      "type": "function"
    },
    {
      "inputs": [
        {
          "internalType": "address",
          "name": "from",
          "type": "address"
        },
        {
          "internalType": "address",
          "name": "to",
          "type": "address"
        },
        {
          "internalType": "uint256",
          "name": "tokenId",
          "type": "uint256"
        }
      ],
      "name": "safeTransferFrom",
      "outputs": [],
      "stateMutability": "nonpayable",
      "type": "function"
    },
    {
      "inputs": [
        {
          "internalType": "address",
          "name": "from",
          "type": "address"
        },
        {
          "internalType": "address",
          "name": "to",
          "type": "address"
        },
        {
          "internalType": "uint256",
          "name": "tokenId",
          "type": "uint256"
        },
        {
          "internalType": "bytes",
          "name": "data",
          "type": "bytes"
        }
      ],
      "name": "safeTransferFrom",
      "outputs": [],
      "stateMutability": "nonpayable",
      "type": "function"
    },
    {
      "inputs": [
        {
          "internalType": "address",
          "name": "operator",
          "type": "address"
        },
        {
          "internalType": "bool",
          "name": "approved",
          "type": "bool"
        }
      ],
      "name": "setApprovalForAll",
      "outputs": [],
      "stateMutability": "nonpayable",
      "type": "function"
    },
    {
      "inputs": [
        {
          "internalType": "bytes4",
          "name": "interfaceId",
          "type": "bytes4"
        }
      ],
      "name": "supportsInterface",
      "outputs": [
        {
          "internalType": "bool",
          "name": "",
          "type": "bool"
        }
      ],
      "stateMutability": "view",
      "type": "function"
    },
    {
      "inputs": [],
      "name": "symbol",
      "outputs": [
        {
          "internalType": "string",
          "name": "",
          "type": "string"
        }
      ],
      "stateMutability": "view",
      "type": "function"
    },
    {
      "inputs": [
        {
          "internalType": "uint256",
          "name": "tokenId",
          "type": "uint256"
        }
      ],
      "name": "tokenURI",
      "outputs": [
        {
          "internalType": "string",
          "name": "",
          "type": "string"
        }
      ],
      "stateMutability": "view",
      "type": "function"
    },
    {
      "inputs": [
        {
          "internalType": "address",
          "name": "from",
          "type": "address"
        },
        {
          "internalType": "address",
          "name": "to",
          "type": "address"
        },
        {
          "internalType": "uint256",
          "name": "tokenId",
          "type": "uint256"
        }
      ],
      "name": "transferFrom",
      "outputs": [],
      "stateMutability": "nonpayable",
      "type": "function"
    },
    {
      "inputs": [
        {
          "internalType": "address",
          "name": "newOwner",
          "type": "address"
        }
      ],
      "name": "transferOwnership",
      "outputs": [],
      "stateMutability": "nonpayable",
      "type": "function"
    },
    {
      "inputs": [
        {
          "internalType": "uint256",
          "name": "tokenId",
          "type": "uint256"
        },
        {
          "internalType": "string",
          "name": "image",
          "type": "string"
        },
        {
          "internalType": "string",
          "name": "description",
          "type": "string"
        }
      ],
      "name": "updateNft",
      "outputs": [],
      "stateMutability": "nonpayable",
      "type": "function"
    }
  ],
  "bytecode": "0x60806040526040518060600160405280602a81526020016200429a602a9139600a908051906020019062000035929190620005d6565b506040518060400160405280600781526020017f417374726f465400000000000000000000000000000000000000000000000000815250600d908051906020019062000083929190620005d6565b506040518060400160405280600a81526020017f417374726f46542e6d6500000000000000000000000000000000000000000000815250600e9080519060200190620000d1929190620005d6565b506040518060800160405280605981526020016200424160599139600f908051906020019062000103929190620005d6565b503480156200011157600080fd5b50604051620042c4380380620042c48339818101604052810190620001379190620006f0565b6040518060400160405280600781526020017f417374726f4654000000000000000000000000000000000000000000000000008152506040518060400160405280600381526020017f41465400000000000000000000000000000000000000000000000000000000008152508160009080519060200190620001bb929190620005d6565b508060019080519060200190620001d4929190620005d6565b505050620001f7620001eb6200038e60201b60201c565b6200039660201b60201c565b80600960006101000a81548173ffffffffffffffffffffffffffffffffffffffff021916908373ffffffffffffffffffffffffffffffffffffffff160217905550600960009054906101000a900473ffffffffffffffffffffffffffffffffffffffff1673ffffffffffffffffffffffffffffffffffffffff16633a9151b030600d6200028f466200045c60201b62000e911760201c565b604051602001620002a29291906200096c565b6040516020818303038152906040526040518363ffffffff1660e01b8152600401620002d092919062000a37565b6020604051808303816000875af1158015620002f0573d6000803e3d6000fd5b505050506040513d601f19601f8201168201806040525081019062000316919062000aa6565b600c81905550600d62000334466200045c60201b62000e911760201c565b6200034c600c546200045c60201b62000e911760201c565b604051602001620003609392919062000ad8565b604051602081830303815290604052600b908051906020019062000386929190620005d6565b505062000d43565b600033905090565b6000600760009054906101000a900473ffffffffffffffffffffffffffffffffffffffff16905081600760006101000a81548173ffffffffffffffffffffffffffffffffffffffff021916908373ffffffffffffffffffffffffffffffffffffffff1602179055508173ffffffffffffffffffffffffffffffffffffffff168173ffffffffffffffffffffffffffffffffffffffff167f8be0079c531659141344cd1fd0a4f28419497f9722a3daafe3b4186f6b6457e060405160405180910390a35050565b60606000821415620004a6576040518060400160405280600181526020017f30000000000000000000000000000000000000000000000000000000000000008152509050620005d1565b600082905060005b60008214620004de578080620004c49062000b60565b915050600a82620004d6919062000bdd565b9150620004ae565b60008167ffffffffffffffff811115620004fd57620004fc62000c15565b5b6040519080825280601f01601f191660200182016040528015620005305781602001600182028036833780820191505090505b5090505b60008514620005ca576001826200054c919062000c44565b9150600a856200055d919062000c7f565b60306200056b919062000cb7565b60f81b81838151811062000584576200058362000d14565b5b60200101907effffffffffffffffffffffffffffffffffffffffffffffffffffffffffffff1916908160001a905350600a85620005c2919062000bdd565b945062000534565b8093505050505b919050565b828054620005e49062000777565b90600052602060002090601f01602090048101928262000608576000855562000654565b82601f106200062357805160ff191683800117855562000654565b8280016001018555821562000654579182015b828111156200065357825182559160200191906001019062000636565b5b50905062000663919062000667565b5090565b5b808211156200068257600081600090555060010162000668565b5090565b600080fd5b600073ffffffffffffffffffffffffffffffffffffffff82169050919050565b6000620006b8826200068b565b9050919050565b620006ca81620006ab565b8114620006d657600080fd5b50565b600081519050620006ea81620006bf565b92915050565b60006020828403121562000709576200070862000686565b5b60006200071984828501620006d9565b91505092915050565b7f435245415445205441424c452000000000000000000000000000000000000000815250565b7f4e487b7100000000000000000000000000000000000000000000000000000000600052602260045260246000fd5b600060028204905060018216806200079057607f821691505b60208210811415620007a757620007a662000748565b5b50919050565b600081905092915050565b60008190508160005260206000209050919050565b60008154620007dc8162000777565b620007e88186620007ad565b9450600182166000811462000806576001811462000818576200084f565b60ff198316865281860193506200084f565b6200082385620007b8565b60005b83811015620008475781548189015260018201915060208101905062000826565b838801955050505b50505092915050565b7f5f00000000000000000000000000000000000000000000000000000000000000815250565b600081519050919050565b60005b83811015620008a95780820151818401526020810190506200088c565b83811115620008b9576000848401525b50505050565b6000620008cc826200087e565b620008d88185620007ad565b9350620008ea81856020860162000889565b80840191505092915050565b7f2028696420696e742c20696d61676520746578742c206465736372697074696f60008201527f6e2074657874293b000000000000000000000000000000000000000000000000602082015250565b600062000954602883620007ad565b91506200096182620008f6565b602882019050919050565b6000620009798262000722565b600d820191506200098b8285620007cd565b9150620009988262000858565b600182019150620009aa8284620008bf565b9150620009b78262000945565b91508190509392505050565b620009ce81620006ab565b82525050565b600082825260208201905092915050565b6000601f19601f8301169050919050565b600062000a03826200087e565b62000a0f8185620009d4565b935062000a2181856020860162000889565b62000a2c81620009e5565b840191505092915050565b600060408201905062000a4e6000830185620009c3565b818103602083015262000a628184620009f6565b90509392505050565b6000819050919050565b62000a808162000a6b565b811462000a8c57600080fd5b50565b60008151905062000aa08162000a75565b92915050565b60006020828403121562000abf5762000abe62000686565b5b600062000acf8482850162000a8f565b91505092915050565b600062000ae68286620007cd565b915062000af38262000858565b60018201915062000b058285620008bf565b915062000b128262000858565b60018201915062000b248284620008bf565b9150819050949350505050565b7f4e487b7100000000000000000000000000000000000000000000000000000000600052601160045260246000fd5b600062000b6d8262000a6b565b91507fffffffffffffffffffffffffffffffffffffffffffffffffffffffffffffffff82141562000ba35762000ba262000b31565b5b600182019050919050565b7f4e487b7100000000000000000000000000000000000000000000000000000000600052601260045260246000fd5b600062000bea8262000a6b565b915062000bf78362000a6b565b92508262000c0a5762000c0962000bae565b5b828204905092915050565b7f4e487b7100000000000000000000000000000000000000000000000000000000600052604160045260246000fd5b600062000c518262000a6b565b915062000c5e8362000a6b565b92508282101562000c745762000c7362000b31565b5b828203905092915050565b600062000c8c8262000a6b565b915062000c998362000a6b565b92508262000cac5762000cab62000bae565b5b828206905092915050565b600062000cc48262000a6b565b915062000cd18362000a6b565b9250827fffffffffffffffffffffffffffffffffffffffffffffffffffffffffffffffff0382111562000d095762000d0862000b31565b5b828201905092915050565b7f4e487b7100000000000000000000000000000000000000000000000000000000600052603260045260246000fd5b6134ee8062000d536000396000f3fe608060405234801561001057600080fd5b50600436106101215760003560e01c806370a08231116100ad578063a22cb46511610071578063a22cb46514610308578063b88d4fde14610324578063c87b56dd14610340578063e985e9c514610370578063f2fde38b146103a057610121565b806370a0823114610276578063715018a6146102a657806375eb5e5c146102b05780638da5cb5b146102cc57806395d89b41146102ea57610121565b8063095ea7b3116100f4578063095ea7b3146101c257806323b872dd146101de57806340d097c3146101fa57806342842e0e1461022a5780636352211e1461024657610121565b806301ffc9a71461012657806303ee438c1461015657806306fdde0314610174578063081812fc14610192575b600080fd5b610140600480360381019061013b9190611ce9565b6103bc565b60405161014d9190611d31565b60405180910390f35b61015e61049e565b60405161016b9190611de5565b60405180910390f35b61017c6104d5565b6040516101899190611de5565b60405180910390f35b6101ac60048036038101906101a79190611e3d565b610567565b6040516101b99190611eab565b60405180910390f35b6101dc60048036038101906101d79190611ef2565b6105ad565b005b6101f860048036038101906101f39190611f32565b6106c5565b005b610214600480360381019061020f9190611f85565b610725565b6040516102219190611fc1565b60405180910390f35b610244600480360381019061023f9190611f32565b610821565b005b610260600480360381019061025b9190611e3d565b610841565b60405161026d9190611eab565b60405180910390f35b610290600480360381019061028b9190611f85565b6108f3565b60405161029d9190611fc1565b60405180910390f35b6102ae6109ab565b005b6102ca60048036038101906102c59190612041565b6109bf565b005b6102d4610b72565b6040516102e19190611eab565b60405180910390f35b6102f2610b9c565b6040516102ff9190611de5565b60405180910390f35b610322600480360381019061031d9190612102565b610c2e565b005b61033e60048036038101906103399190612272565b610c44565b005b61035a60048036038101906103559190611e3d565b610ca6565b6040516103679190611de5565b60405180910390f35b61038a600480360381019061038591906122f5565b610d79565b6040516103979190611d31565b60405180910390f35b6103ba60048036038101906103b59190611f85565b610e0d565b005b60007f80ac58cd000000000000000000000000000000000000000000000000000000007bffffffffffffffffffffffffffffffffffffffffffffffffffffffff1916827bffffffffffffffffffffffffffffffffffffffffffffffffffffffff1916148061048757507f5b5e139f000000000000000000000000000000000000000000000000000000007bffffffffffffffffffffffffffffffffffffffffffffffffffffffff1916827bffffffffffffffffffffffffffffffffffffffffffffffffffffffff1916145b80610497575061049682610ff2565b5b9050919050565b606060006104aa61105c565b905080600b6040516020016104c092919061248c565b60405160208183030381529060405291505090565b6060600080546104e4906123c6565b80601f0160208091040260200160405190810160405280929190818152602001828054610510906123c6565b801561055d5780601f106105325761010080835404028352916020019161055d565b820191906000526020600020905b81548152906001019060200180831161054057829003601f168201915b5050505050905090565b6000610572826110ee565b6004600083815260200190815260200160002060009054906101000a900473ffffffffffffffffffffffffffffffffffffffff169050919050565b60006105b882610841565b90508073ffffffffffffffffffffffffffffffffffffffff168373ffffffffffffffffffffffffffffffffffffffff161415610629576040517f08c379a000000000000000000000000000000000000000000000000000000000815260040161062090612531565b60405180910390fd5b8073ffffffffffffffffffffffffffffffffffffffff16610648611139565b73ffffffffffffffffffffffffffffffffffffffff161480610677575061067681610671611139565b610d79565b5b6106b6576040517f08c379a00000000000000000000000000000000000000000000000000000000081526004016106ad906125c3565b60405180910390fd5b6106c08383611141565b505050565b6106d66106d0611139565b826111fa565b610715576040517f08c379a000000000000000000000000000000000000000000000000000000000815260040161070c90612655565b60405180910390fd5b61072083838361128f565b505050565b60008061073260086114f6565b9050600960009054906101000a900473ffffffffffffffffffffffffffffffffffffffff1673ffffffffffffffffffffffffffffffffffffffff1663eaf5d04e30600c54600b61078186610e91565b600f60405160200161079593929190612759565b6040516020818303038152906040526040518463ffffffff1660e01b81526004016107c2939291906127c2565b600060405180830381600087803b1580156107dc57600080fd5b505af11580156107f0573d6000803e3d6000fd5b5050505061080e838260405180602001604052806000815250611504565b610818600861155f565b80915050919050565b61083c83838360405180602001604052806000815250610c44565b505050565b6000806002600084815260200190815260200160002060009054906101000a900473ffffffffffffffffffffffffffffffffffffffff169050600073ffffffffffffffffffffffffffffffffffffffff168173ffffffffffffffffffffffffffffffffffffffff1614156108ea576040517f08c379a00000000000000000000000000000000000000000000000000000000081526004016108e19061284c565b60405180910390fd5b80915050919050565b60008073ffffffffffffffffffffffffffffffffffffffff168273ffffffffffffffffffffffffffffffffffffffff161415610964576040517f08c379a000000000000000000000000000000000000000000000000000000000815260040161095b906128de565b60405180910390fd5b600360008373ffffffffffffffffffffffffffffffffffffffff1673ffffffffffffffffffffffffffffffffffffffff168152602001908152602001600020549050919050565b6109b3611575565b6109bd60006115f3565b565b3373ffffffffffffffffffffffffffffffffffffffff163073ffffffffffffffffffffffffffffffffffffffff16636352211e876040518263ffffffff1660e01b8152600401610a0f9190611fc1565b602060405180830381865afa158015610a2c573d6000803e3d6000fd5b505050506040513d601f19601f82011682018060405250810190610a509190612913565b73ffffffffffffffffffffffffffffffffffffffff1614610aa6576040517f08c379a0000000000000000000000000000000000000000000000000000000008152600401610a9d9061298c565b60405180910390fd5b600960009054906101000a900473ffffffffffffffffffffffffffffffffffffffff1673ffffffffffffffffffffffffffffffffffffffff1663eaf5d04e30600c54600b88888888610af78e610e91565b604051602001610b0c96959493929190612a8f565b6040516020818303038152906040526040518463ffffffff1660e01b8152600401610b39939291906127c2565b600060405180830381600087803b158015610b5357600080fd5b505af1158015610b67573d6000803e3d6000fd5b505050505050505050565b6000600760009054906101000a900473ffffffffffffffffffffffffffffffffffffffff16905090565b606060018054610bab906123c6565b80601f0160208091040260200160405190810160405280929190818152602001828054610bd7906123c6565b8015610c245780601f10610bf957610100808354040283529160200191610c24565b820191906000526020600020905b815481529060010190602001808311610c0757829003601f168201915b5050505050905090565b610c40610c39611139565b83836116b9565b5050565b610c55610c4f611139565b836111fa565b610c94576040517f08c379a0000000000000000000000000000000000000000000000000000000008152600401610c8b90612655565b60405180910390fd5b610ca084848484611826565b50505050565b6060610cb182611882565b610cf0576040517f08c379a0000000000000000000000000000000000000000000000000000000008152600401610ce790612b8e565b60405180910390fd5b6000610cfa61105c565b9050600081511415610d1e5760405180602001604052806000815250915050610d74565b6000600b604051602001610d329190612d50565b60405160208183030381529060405290508181610d4e86610e91565b604051602001610d6093929190612ddf565b604051602081830303815290604052925050505b919050565b6000600560008473ffffffffffffffffffffffffffffffffffffffff1673ffffffffffffffffffffffffffffffffffffffff16815260200190815260200160002060008373ffffffffffffffffffffffffffffffffffffffff1673ffffffffffffffffffffffffffffffffffffffff16815260200190815260200160002060009054906101000a900460ff16905092915050565b610e15611575565b600073ffffffffffffffffffffffffffffffffffffffff168173ffffffffffffffffffffffffffffffffffffffff161415610e85576040517f08c379a0000000000000000000000000000000000000000000000000000000008152600401610e7c90612e8d565b60405180910390fd5b610e8e816115f3565b50565b60606000821415610ed9576040518060400160405280600181526020017f30000000000000000000000000000000000000000000000000000000000000008152509050610fed565b600082905060005b60008214610f0b578080610ef490612edc565b915050600a82610f049190612f54565b9150610ee1565b60008167ffffffffffffffff811115610f2757610f26612147565b5b6040519080825280601f01601f191660200182016040528015610f595781602001600182028036833780820191505090505b5090505b60008514610fe657600182610f729190612f85565b9150600a85610f819190612fb9565b6030610f8d9190612fea565b60f81b818381518110610fa357610fa2613040565b5b60200101907effffffffffffffffffffffffffffffffffffffffffffffffffffffffffffff1916908160001a905350600a85610fdf9190612f54565b9450610f5d565b8093505050505b919050565b60007f01ffc9a7000000000000000000000000000000000000000000000000000000007bffffffffffffffffffffffffffffffffffffffffffffffffffffffff1916827bffffffffffffffffffffffffffffffffffffffffffffffffffffffff1916149050919050565b6060600a805461106b906123c6565b80601f0160208091040260200160405190810160405280929190818152602001828054611097906123c6565b80156110e45780601f106110b9576101008083540402835291602001916110e4565b820191906000526020600020905b8154815290600101906020018083116110c757829003601f168201915b5050505050905090565b6110f781611882565b611136576040517f08c379a000000000000000000000000000000000000000000000000000000000815260040161112d9061284c565b60405180910390fd5b50565b600033905090565b816004600083815260200190815260200160002060006101000a81548173ffffffffffffffffffffffffffffffffffffffff021916908373ffffffffffffffffffffffffffffffffffffffff160217905550808273ffffffffffffffffffffffffffffffffffffffff166111b483610841565b73ffffffffffffffffffffffffffffffffffffffff167f8c5be1e5ebec7d5bd14f71427d1e84f3dd0314c0f7b2291e5b200ac8c7c3b92560405160405180910390a45050565b60008061120683610841565b90508073ffffffffffffffffffffffffffffffffffffffff168473ffffffffffffffffffffffffffffffffffffffff16148061124857506112478185610d79565b5b8061128657508373ffffffffffffffffffffffffffffffffffffffff1661126e84610567565b73ffffffffffffffffffffffffffffffffffffffff16145b91505092915050565b8273ffffffffffffffffffffffffffffffffffffffff166112af82610841565b73ffffffffffffffffffffffffffffffffffffffff1614611305576040517f08c379a00000000000000000000000000000000000000000000000000000000081526004016112fc906130e1565b60405180910390fd5b600073ffffffffffffffffffffffffffffffffffffffff168273ffffffffffffffffffffffffffffffffffffffff161415611375576040517f08c379a000000000000000000000000000000000000000000000000000000000815260040161136c90613173565b60405180910390fd5b6113808383836118ee565b61138b600082611141565b6001600360008573ffffffffffffffffffffffffffffffffffffffff1673ffffffffffffffffffffffffffffffffffffffff16815260200190815260200160002060008282546113db9190612f85565b925050819055506001600360008473ffffffffffffffffffffffffffffffffffffffff1673ffffffffffffffffffffffffffffffffffffffff16815260200190815260200160002060008282546114329190612fea565b92505081905550816002600083815260200190815260200160002060006101000a81548173ffffffffffffffffffffffffffffffffffffffff021916908373ffffffffffffffffffffffffffffffffffffffff160217905550808273ffffffffffffffffffffffffffffffffffffffff168473ffffffffffffffffffffffffffffffffffffffff167fddf252ad1be2c89b69c2b068fc378daa952ba7f163c4a11628f55a4df523b3ef60405160405180910390a46114f18383836118f3565b505050565b600081600001549050919050565b61150e83836118f8565b61151b6000848484611ad2565b61155a576040517f08c379a000000000000000000000000000000000000000000000000000000000815260040161155190613205565b60405180910390fd5b505050565b6001816000016000828254019250508190555050565b61157d611139565b73ffffffffffffffffffffffffffffffffffffffff1661159b610b72565b73ffffffffffffffffffffffffffffffffffffffff16146115f1576040517f08c379a00000000000000000000000000000000000000000000000000000000081526004016115e890613271565b60405180910390fd5b565b6000600760009054906101000a900473ffffffffffffffffffffffffffffffffffffffff16905081600760006101000a81548173ffffffffffffffffffffffffffffffffffffffff021916908373ffffffffffffffffffffffffffffffffffffffff1602179055508173ffffffffffffffffffffffffffffffffffffffff168173ffffffffffffffffffffffffffffffffffffffff167f8be0079c531659141344cd1fd0a4f28419497f9722a3daafe3b4186f6b6457e060405160405180910390a35050565b8173ffffffffffffffffffffffffffffffffffffffff168373ffffffffffffffffffffffffffffffffffffffff161415611728576040517f08c379a000000000000000000000000000000000000000000000000000000000815260040161171f906132dd565b60405180910390fd5b80600560008573ffffffffffffffffffffffffffffffffffffffff1673ffffffffffffffffffffffffffffffffffffffff16815260200190815260200160002060008473ffffffffffffffffffffffffffffffffffffffff1673ffffffffffffffffffffffffffffffffffffffff16815260200190815260200160002060006101000a81548160ff0219169083151502179055508173ffffffffffffffffffffffffffffffffffffffff168373ffffffffffffffffffffffffffffffffffffffff167f17307eab39ab6107e8899845ad3d59bd9653f200f220920489ca2b5937696c31836040516118199190611d31565b60405180910390a3505050565b61183184848461128f565b61183d84848484611ad2565b61187c576040517f08c379a000000000000000000000000000000000000000000000000000000000815260040161187390613205565b60405180910390fd5b50505050565b60008073ffffffffffffffffffffffffffffffffffffffff166002600084815260200190815260200160002060009054906101000a900473ffffffffffffffffffffffffffffffffffffffff1673ffffffffffffffffffffffffffffffffffffffff1614159050919050565b505050565b505050565b600073ffffffffffffffffffffffffffffffffffffffff168273ffffffffffffffffffffffffffffffffffffffff161415611968576040517f08c379a000000000000000000000000000000000000000000000000000000000815260040161195f90613349565b60405180910390fd5b61197181611882565b156119b1576040517f08c379a00000000000000000000000000000000000000000000000000000000081526004016119a8906133b5565b60405180910390fd5b6119bd600083836118ee565b6001600360008473ffffffffffffffffffffffffffffffffffffffff1673ffffffffffffffffffffffffffffffffffffffff1681526020019081526020016000206000828254611a0d9190612fea565b92505081905550816002600083815260200190815260200160002060006101000a81548173ffffffffffffffffffffffffffffffffffffffff021916908373ffffffffffffffffffffffffffffffffffffffff160217905550808273ffffffffffffffffffffffffffffffffffffffff16600073ffffffffffffffffffffffffffffffffffffffff167fddf252ad1be2c89b69c2b068fc378daa952ba7f163c4a11628f55a4df523b3ef60405160405180910390a4611ace600083836118f3565b5050565b6000611af38473ffffffffffffffffffffffffffffffffffffffff16611c5a565b15611c4d578373ffffffffffffffffffffffffffffffffffffffff1663150b7a02611b1c611139565b8786866040518563ffffffff1660e01b8152600401611b3e949392919061342a565b6020604051808303816000875af1925050508015611b7a57506040513d601f19601f82011682018060405250810190611b77919061348b565b60015b611bfd573d8060008114611baa576040519150601f19603f3d011682016040523d82523d6000602084013e611baf565b606091505b50600081511415611bf5576040517f08c379a0000000000000000000000000000000000000000000000000000000008152600401611bec90613205565b60405180910390fd5b805181602001fd5b63150b7a0260e01b7bffffffffffffffffffffffffffffffffffffffffffffffffffffffff1916817bffffffffffffffffffffffffffffffffffffffffffffffffffffffff191614915050611c52565b600190505b949350505050565b6000808273ffffffffffffffffffffffffffffffffffffffff163b119050919050565b6000604051905090565b600080fd5b600080fd5b60007fffffffff0000000000000000000000000000000000000000000000000000000082169050919050565b611cc681611c91565b8114611cd157600080fd5b50565b600081359050611ce381611cbd565b92915050565b600060208284031215611cff57611cfe611c87565b5b6000611d0d84828501611cd4565b91505092915050565b60008115159050919050565b611d2b81611d16565b82525050565b6000602082019050611d466000830184611d22565b92915050565b600081519050919050565b600082825260208201905092915050565b60005b83811015611d86578082015181840152602081019050611d6b565b83811115611d95576000848401525b50505050565b6000601f19601f8301169050919050565b6000611db782611d4c565b611dc18185611d57565b9350611dd1818560208601611d68565b611dda81611d9b565b840191505092915050565b60006020820190508181036000830152611dff8184611dac565b905092915050565b6000819050919050565b611e1a81611e07565b8114611e2557600080fd5b50565b600081359050611e3781611e11565b92915050565b600060208284031215611e5357611e52611c87565b5b6000611e6184828501611e28565b91505092915050565b600073ffffffffffffffffffffffffffffffffffffffff82169050919050565b6000611e9582611e6a565b9050919050565b611ea581611e8a565b82525050565b6000602082019050611ec06000830184611e9c565b92915050565b611ecf81611e8a565b8114611eda57600080fd5b50565b600081359050611eec81611ec6565b92915050565b60008060408385031215611f0957611f08611c87565b5b6000611f1785828601611edd565b9250506020611f2885828601611e28565b9150509250929050565b600080600060608486031215611f4b57611f4a611c87565b5b6000611f5986828701611edd565b9350506020611f6a86828701611edd565b9250506040611f7b86828701611e28565b9150509250925092565b600060208284031215611f9b57611f9a611c87565b5b6000611fa984828501611edd565b91505092915050565b611fbb81611e07565b82525050565b6000602082019050611fd66000830184611fb2565b92915050565b600080fd5b600080fd5b600080fd5b60008083601f84011261200157612000611fdc565b5b8235905067ffffffffffffffff81111561201e5761201d611fe1565b5b60208301915083600182028301111561203a57612039611fe6565b5b9250929050565b60008060008060006060868803121561205d5761205c611c87565b5b600061206b88828901611e28565b955050602086013567ffffffffffffffff81111561208c5761208b611c8c565b5b61209888828901611feb565b9450945050604086013567ffffffffffffffff8111156120bb576120ba611c8c565b5b6120c788828901611feb565b92509250509295509295909350565b6120df81611d16565b81146120ea57600080fd5b50565b6000813590506120fc816120d6565b92915050565b6000806040838503121561211957612118611c87565b5b600061212785828601611edd565b9250506020612138858286016120ed565b9150509250929050565b600080fd5b7f4e487b7100000000000000000000000000000000000000000000000000000000600052604160045260246000fd5b61217f82611d9b565b810181811067ffffffffffffffff8211171561219e5761219d612147565b5b80604052505050565b60006121b1611c7d565b90506121bd8282612176565b919050565b600067ffffffffffffffff8211156121dd576121dc612147565b5b6121e682611d9b565b9050602081019050919050565b82818337600083830152505050565b6000612215612210846121c2565b6121a7565b90508281526020810184848401111561223157612230612142565b5b61223c8482856121f3565b509392505050565b600082601f83011261225957612258611fdc565b5b8135612269848260208601612202565b91505092915050565b6000806000806080858703121561228c5761228b611c87565b5b600061229a87828801611edd565b94505060206122ab87828801611edd565b93505060406122bc87828801611e28565b925050606085013567ffffffffffffffff8111156122dd576122dc611c8c565b5b6122e987828801612244565b91505092959194509250565b6000806040838503121561230c5761230b611c87565b5b600061231a85828601611edd565b925050602061232b85828601611edd565b9150509250929050565b600081905092915050565b600061234b82611d4c565b6123558185612335565b9350612365818560208601611d68565b80840191505092915050565b7f53454c4543542532302a25323046524f4d253230000000000000000000000000815250565b7f4e487b7100000000000000000000000000000000000000000000000000000000600052602260045260246000fd5b600060028204905060018216806123de57607f821691505b602082108114156123f2576123f1612397565b5b50919050565b60008190508160005260206000209050919050565b6000815461241a816123c6565b6124248186612335565b9450600182166000811461243f576001811461245057612483565b60ff19831686528186019350612483565b612459856123f8565b60005b8381101561247b5781548189015260018201915060208101905061245c565b838801955050505b50505092915050565b60006124988285612340565b91506124a382612371565b6014820191506124b3828461240d565b91508190509392505050565b7f4552433732313a20617070726f76616c20746f2063757272656e74206f776e6560008201527f7200000000000000000000000000000000000000000000000000000000000000602082015250565b600061251b602183611d57565b9150612526826124bf565b604082019050919050565b6000602082019050818103600083015261254a8161250e565b9050919050565b7f4552433732313a20617070726f76652063616c6c6572206973206e6f7420746f60008201527f6b656e206f776e6572206e6f7220617070726f76656420666f7220616c6c0000602082015250565b60006125ad603e83611d57565b91506125b882612551565b604082019050919050565b600060208201905081810360008301526125dc816125a0565b9050919050565b7f4552433732313a2063616c6c6572206973206e6f7420746f6b656e206f776e6560008201527f72206e6f7220617070726f766564000000000000000000000000000000000000602082015250565b600061263f602e83611d57565b915061264a826125e3565b604082019050919050565b6000602082019050818103600083015261266e81612632565b9050919050565b7f494e5345525420494e544f200000000000000000000000000000000000000000815250565b7f202869642c20696d616765202c206465736372697074696f6e292056414c554560008201527f5320280000000000000000000000000000000000000000000000000000000000602082015250565b60006126f7602383612335565b91506127028261269b565b602382019050919050565b7f2c20270000000000000000000000000000000000000000000000000000000000815250565b7f272c20276e667427293b00000000000000000000000000000000000000000000815250565b600061276482612675565b600c82019150612774828661240d565b915061277f826126ea565b915061278b8285612340565b91506127968261270d565b6003820191506127a6828461240d565b91506127b182612733565b600a82019150819050949350505050565b60006060820190506127d76000830186611e9c565b6127e46020830185611fb2565b81810360408301526127f68184611dac565b9050949350505050565b7f4552433732313a20696e76616c696420746f6b656e2049440000000000000000600082015250565b6000612836601883611d57565b915061284182612800565b602082019050919050565b6000602082019050818103600083015261286581612829565b9050919050565b7f4552433732313a2061646472657373207a65726f206973206e6f74206120766160008201527f6c6964206f776e65720000000000000000000000000000000000000000000000602082015250565b60006128c8602983611d57565b91506128d38261286c565b604082019050919050565b600060208201905081810360008301526128f7816128bb565b9050919050565b60008151905061290d81611ec6565b92915050565b60006020828403121561292957612928611c87565b5b6000612937848285016128fe565b91505092915050565b7f496e76616c6964206f776e657200000000000000000000000000000000000000600082015250565b6000612976600d83611d57565b915061298182612940565b602082019050919050565b600060208201905081810360008301526129a581612969565b9050919050565b7f5550444154452000000000000000000000000000000000000000000000000000815250565b7f2053455420696d616765203d2027000000000000000000000000000000000000815250565b6000612a048385612335565b9350612a118385846121f3565b82840190509392505050565b7f272c206465736372697074696f6e203d20270000000000000000000000000000815250565b7f2027205748455245206964203d20000000000000000000000000000000000000815250565b7f3b00000000000000000000000000000000000000000000000000000000000000815250565b6000612a9a826129ac565b600782019150612aaa828961240d565b9150612ab5826129d2565b600e82019150612ac68287896129f8565b9150612ad182612a1d565b601282019150612ae28285876129f8565b9150612aed82612a43565b600e82019150612afd8284612340565b9150612b0882612a69565b600182019150819050979650505050505050565b7f4552433732314d657461646174613a2055524920717565727920666f72206e6f60008201527f6e6578697374656e7420746f6b656e0000000000000000000000000000000000602082015250565b6000612b78602f83611d57565b9150612b8382612b1c565b604082019050919050565b60006020820190508181036000830152612ba781612b6b565b9050919050565b7f73656c6563742532300000000000000000000000000000000000000000000000600082015250565b6000612be4600983612335565b9150612bef82612bae565b600982019050919050565b7f6a736f6e5f6f626a65637425323825323769642532372532436964253243253260008201527f37696d616765253237253243696d61676525324325323764657363726970746960208201527f6f6e2532372532436465736372697074696f6e2532432532376465736372697060408201527f74696f6e2532372532436465736372697074696f6e2532392532300000000000606082015250565b6000612ca2607b83612335565b9150612cad82612bfa565b607b82019050919050565b7f66726f6d25323000000000000000000000000000000000000000000000000000600082015250565b6000612cee600783612335565b9150612cf982612cb8565b600782019050919050565b7f2532307768657265253230696425323025334400000000000000000000000000600082015250565b6000612d3a601383612335565b9150612d4582612d04565b601382019050919050565b6000612d5b82612bd7565b9150612d6682612c95565b9150612d7182612ce1565b9150612d7d828461240d565b9150612d8882612d2d565b915081905092915050565b7f266d6f64653d6c69737400000000000000000000000000000000000000000000600082015250565b6000612dc9600a83612335565b9150612dd482612d93565b600a82019050919050565b6000612deb8286612340565b9150612df78285612340565b9150612e038284612340565b9150612e0e82612dbc565b9150819050949350505050565b7f4f776e61626c653a206e6577206f776e657220697320746865207a65726f206160008201527f6464726573730000000000000000000000000000000000000000000000000000602082015250565b6000612e77602683611d57565b9150612e8282612e1b565b604082019050919050565b60006020820190508181036000830152612ea681612e6a565b9050919050565b7f4e487b7100000000000000000000000000000000000000000000000000000000600052601160045260246000fd5b6000612ee782611e07565b91507fffffffffffffffffffffffffffffffffffffffffffffffffffffffffffffffff821415612f1a57612f19612ead565b5b600182019050919050565b7f4e487b7100000000000000000000000000000000000000000000000000000000600052601260045260246000fd5b6000612f5f82611e07565b9150612f6a83611e07565b925082612f7a57612f79612f25565b5b828204905092915050565b6000612f9082611e07565b9150612f9b83611e07565b925082821015612fae57612fad612ead565b5b828203905092915050565b6000612fc482611e07565b9150612fcf83611e07565b925082612fdf57612fde612f25565b5b828206905092915050565b6000612ff582611e07565b915061300083611e07565b9250827fffffffffffffffffffffffffffffffffffffffffffffffffffffffffffffffff0382111561303557613034612ead565b5b828201905092915050565b7f4e487b7100000000000000000000000000000000000000000000000000000000600052603260045260246000fd5b7f4552433732313a207472616e736665722066726f6d20696e636f72726563742060008201527f6f776e6572000000000000000000000000000000000000000000000000000000602082015250565b60006130cb602583611d57565b91506130d68261306f565b604082019050919050565b600060208201905081810360008301526130fa816130be565b9050919050565b7f4552433732313a207472616e7366657220746f20746865207a65726f2061646460008201527f7265737300000000000000000000000000000000000000000000000000000000602082015250565b600061315d602483611d57565b915061316882613101565b604082019050919050565b6000602082019050818103600083015261318c81613150565b9050919050565b7f4552433732313a207472616e7366657220746f206e6f6e20455243373231526560008201527f63656976657220696d706c656d656e7465720000000000000000000000000000602082015250565b60006131ef603283611d57565b91506131fa82613193565b604082019050919050565b6000602082019050818103600083015261321e816131e2565b9050919050565b7f4f776e61626c653a2063616c6c6572206973206e6f7420746865206f776e6572600082015250565b600061325b602083611d57565b915061326682613225565b602082019050919050565b6000602082019050818103600083015261328a8161324e565b9050919050565b7f4552433732313a20617070726f766520746f2063616c6c657200000000000000600082015250565b60006132c7601983611d57565b91506132d282613291565b602082019050919050565b600060208201905081810360008301526132f6816132ba565b9050919050565b7f4552433732313a206d696e7420746f20746865207a65726f2061646472657373600082015250565b6000613333602083611d57565b915061333e826132fd565b602082019050919050565b6000602082019050818103600083015261336281613326565b9050919050565b7f4552433732313a20746f6b656e20616c7265616479206d696e74656400000000600082015250565b600061339f601c83611d57565b91506133aa82613369565b602082019050919050565b600060208201905081810360008301526133ce81613392565b9050919050565b600081519050919050565b600082825260208201905092915050565b60006133fc826133d5565b61340681856133e0565b9350613416818560208601611d68565b61341f81611d9b565b840191505092915050565b600060808201905061343f6000830187611e9c565b61344c6020830186611e9c565b6134596040830185611fb2565b818103606083015261346b81846133f1565b905095945050505050565b60008151905061348581611cbd565b92915050565b6000602082840312156134a1576134a0611c87565b5b60006134af84828501613476565b9150509291505056fea264697066735822122065e73f2810889e7137222381e5eb228fd56f1cb57e743e99b5a2cc6038e6529e64736f6c634300080c003368747470733a2f2f6261666b7265696675756f633665746a7779637a7363716f7662736376757666346a716c66366771676365357365666968726d7373713471327a712e697066732e6e667473746f726167652e6c696e6b2f68747470733a2f2f746573746e65742e7461626c656c616e642e6e6574776f726b2f71756572793f733d",
  "linkReferences": {},
  "deployedLinkReferences": {}
}